:1000000001308A0037290000D308031D1D28081776
:10001000881208128811081C132808180D28D50109
:100020002A30F8008428081D1B2808191528D50136
:100030002330F800842807288428530B8428881547
:10004000081388120812081C2A280818252831309D
:10005000F8008428881C312888182C283230F800B1
:100060008428081D3828081933283330F8008428DC
:100070000816081388128811081C432808183E28FF
:100080003430F8008428881C4A28881845283530E0
:10009000F8008428081D512808194C283630F8002B
:1000A00084288816081308128811081C5C28081870
:1000B00057283730F8008428881C632888185E2861
:1000C0003830F8008428081D6A2808196528393056
:1000D000F80084280817881208128811081C75284F
:1000E000081870282A30F8008428881C7C28881872
:1000F00077283030F8008428081D832808197E28C6
:100100002330F80084281F288A110A12B0295A3097
:1001100084008313000803199B280130F800F701BD
:10012000F70B9028F80B8F284A30F700F70B96282A
:100130009928800B8D28080058088600591C071044
:100140005918071487140A30DA00872087100A30FC
:10015000DA00872008005508033C03183429D5012C
:100160005508D300D8012730D700DA012230D90052
:100170005808FA005708840083137A188317000878
:10018000DB005A08FA005908840083137A18831791
:1001900000085B02031DE3285808FA005708840092
:1001A00083137A1883178008031DD9280030F800BC
:1001B000FB285808FA005708D70A0319D80AD90AA1
:1001C0000319DA0AB8285808FA005708840083137C
:1001D000581883170008DB005A08FA0059088400F1
:1001E00083135A18831700085B020318F928FF309D
:1001F000FA280130F8007808D600560B1A2907159E
:100200000130D800D9019C208030D800D9019C2031
:10021000D4015408063C031C19293B3054078400C0
:1002200083130008D700D8000130D9009C20D40ADD
:100230000929342907110130D800D9019C208030C8
:10024000D800D9019C20D40154080D3C031C34294A
:1002500043305407840083130008D700D8000130CE
:10026000D9009C20D40A24298A110A12FB2983165A
:100270001F149F141F159F1183131F3083058312B2
:10028000A001A1013230A2003530A3003830A40013
:100290003030A500A6015330AC006930AD006630A7
:1002A000AE007230AF006530B0007930B100693017
:1002B000B2002030B3006730B4006930B50072304E
:1002C000B6006930B7006E30B8003A30B900BA01F4
:1002D0004830BB004F30BC005330BD004730BE003B
:1002E0004530BF004C30C0004430C100DD30C2009A
:1002F0005930C3004130C4004E30C5004C30C600F8
:100300004930C7005330C8002030C9005330CA00FC
:10031000DD30CB004630CC005230CD004530CE0031
:10032000CF01831607110510071087108601881169
:10033000081288128312D501831608138312551CE4
:10034000A4298316081783128316081B8816881A97
:100350000816081A8815081588140814831204282A
:100360007808D20052082A3C031DDE290130D30050
:10037000D501D800D9019C203830D800D9019C2063
:100380000F30D800D9019C208030D800D9019C20A2
:10039000D40154080D3C031CD9292C305407840087
:1003A00083130008D700D8000130D9009C20D40A5C
:1003B000C929C030D800D9019C20FB295208233C10
:1003C000031DED29D50107110130D800D9019C206A
:1003D0000C30D800D9019C20FB292A30D8000130EC
:1003E000D9009C20273055078400831352088000D1
:0A03F0000130D507AB28AF296300E8
:02400E00393F38
:00000001FF
;PIC16F877
;CRC=948B  CREATED="20-Ara-22 16:18"
